:100000000C942A000C9434000C9434000C943400AA
:100010000C9434000C9434000C9434000C94340090
:100020000C9434000C9434000C9434000C94340080
:100030000C9434000C9434000C9434000C94340070
:100040000C9434000C9434000C9434000C94340060
:100050000C94340011241FBECFE5D8E0DEBFCDBF25
:100060000E94A6000C9480010C9400004F3FC1F444
:10007000813051F028F0823059F0833069F00895D2
:100080008AB3682B6ABB089587B3682B67BB089552
:1000900084B3682B64BB089581B3682B61BB08955A
:1000A00041111BC0813059F028F0823069F0833053
:1000B00081F008958AB3609568236ABB089587B379
:1000C0006095682367BB089584B36095682364BB1B
:1000D000089581B36095682361BB08954F3FC1F4D3
:1000E000813051F028F0823059F0833069F0089562
:1000F0008BB3682B6BBB089588B3682B68BB0895DE
:1001000085B3682B65BB08958BB3682B6BBB0895D3
:1001100041111BC0813059F028F0823069F08330E2
:1001200081F008958BB3609568236BBB089588B305
:100130006095682368BB089585B36095682365BBA7
:1001400008958BB3609568236BBB089580E00E948F
:10015000070181E00E94070160E080E00E94420107
:1001600080E00E94200181E00E94310167E070E0A0
:1001700080E090E00E945D0160E081E00E94420129
:1001800081E00E94200180E00E94310167E070E080
:1001900080E090E00E945D01D1E010E00DEC01C034
:1001A000D0E0109FC12D1124C695C695C6959C2FF1
:1001B000990F892F880F880F890F612F681B80E0A6
:1001C0000E94420180E00E94200181E00E943101F2
:1001D00067E070E080E090E00E945D016C2F81E0BC
:1001E0000E94420181E00E94200180E00E943101D2
:1001F00067E070E080E090E00E945D01DF5FD23355
:1002000081F61F5F143661F6D0E010E0CACFCF93BD
:10021000C82F4FEF6FE081E00E943600CC2319F029
:10022000C13039F00BC04FEF64E083E00E9436002C
:1002300005C04FEF68E083E00E943600CF9108953B
:10024000882319F0813039F008954FEF64E083E09E
:100250000E946E0008954FEF68E083E00E946E00F8
:100260000895882319F0813039F0089540E064E062
:1002700083E00E946E00089540E068E083E00E9401
:100280006E000895882319F0813061F00895462F9B
:100290006FE081E00E946E004FEF64E083E00E9417
:1002A0006E000895462F6FE081E00E946E004FEFD0
:1002B00064E083E00E946E0008950F931F938B010A
:1002C0009C01672B682B692B81F417C00196823F34
:1002D000A8E09A07D9F74F5F5F4F6F4F7F4F4017E6
:1002E00051076207730731F408C040E050E0BA01DB
:1002F000F0E0E0E08F2F9E2FE9CF1F910F9108953E
:04030000F894FFCF9F
:00000001FF
