S015000041546D65676133325F546573742E737265637C
S11300000C942A000C943C000C943C000C943C008E
S11300100C943C000C943C000C943C000C943C006C
S11300200C943C000C943C000C9447010C943C0050
S11300300C943C000C943C000C943C000C943C004C
S11300400C943C000C943C000C943C000C943C003C
S11300500C943C0011241FBECFE5D8E0DEBFCDBF19
S113006020E0A0E6B0E001C01D92A036B207E1F79F
S11300700E940E010C9451010C9400004F3FC1F4F6
S1130080813051F028F0823059F0833069F00895BE
S11300908AB3682B6ABB089587B3682B67BB08953E
S11300A084B3682B64BB089581B3682B61BB089546
S11300B041111BC0813059F028F0823069F083303F
S11300C081F008958AB3609568236ABB089587B365
S11300D06095682367BB089584B36095682364BB07
S11300E0089581B36095682361BB08954F3FC1F4BF
S11300F0813051F028F0823059F0833069F008954E
S11301008BB3682B6BBB089588B3682B68BB0895C9
S113011085B3682B65BB08958BB3682B6BBB0895BF
S113012041111BC0813059F028F0823069F08330CE
S113013081F008958BB3609568236BBB089588B3F1
S11301406095682368BB089585B36095682365BB93
S113015008958BB3609568236BBB0895813061F07B
S113016028F0823079F0833099F008954FEF60E100
S113017081E00E943E0008954FEF60E281E00E941A
S11301803E0008954FEF60E481E00E943E00089530
S11301904FEF60E881E00E943E000895813061F0F5
S11301A028F0823079F0833099F008954FEF60E1C0
S11301B081E00E94760008954FEF60E281E00E94A2
S11301C0760008954FEF60E481E00E947600089580
S11301D04FEF60E881E00E9476000895813061F07D
S11301E028F0823079F0833099F0089540E060E19E
S11301F081E00E947600089540E060E281E00E9480
S11302007600089540E060E481E00E94760008955D
S113021040E060E881E00E947600089580E00E945A
S1130220AE0080E00E94CE0062E370E080E090E0E7
S11302300E94240180E00E94EE0062E370E080E00E
S113024090E00E942401EDCF0F931F938B019C013A
S1130250672B682B692B81F417C00196823FA8E0B5
S11302609A07D9F74F5F5F4F6F4F7F4F4017510782
S11302706207730731F408C040E050E0BA01F0E0CF
S1130280E0E08F2F9E2FE9CF1F910F9108951F92C9
S11302900F920FB60F9211240F900FBE0F901F9064
S10902A01895F894FFCF4D
S9030000FC
