:100000000C942A000C9434000C9434000C943400AA
:100010000C9434000C9434000C9434000C94340090
:100020000C9434000C9434000C9434000C94340080
:100030000C9434000C9434000C9434000C94340070
:100040000C9434000C9434000C9434000C94340060
:100050000C94340011241FBECFE5D8E0DEBFCDBF25
:100060000E941B010C94D1010C9400004F3FC1F47D
:10007000813051F028F0823059F0833069F00895D2
:100080008AB3682B6ABB089587B3682B67BB089552
:1000900084B3682B64BB089581B3682B61BB08955A
:1000A00041111BC0813059F028F0823069F0833053
:1000B00081F008958AB3609568236ABB089587B379
:1000C0006095682367BB089584B36095682364BB1B
:1000D000089581B36095682361BB08954F3FC1F4D3
:1000E000813051F028F0823059F0833069F0089562
:1000F0008BB3682B6BBB089588B3682B68BB0895DE
:1001000085B3682B65BB08958BB3682B6BBB0895D3
:1001100041111BC0813059F028F0823069F08330E2
:1001200081F008958BB3609568236BBB089588B305
:100130006095682368BB089585B36095682365BBA7
:1001400008958BB3609568236BBB0895813049F0A7
:1001500028F0823049F0833051F00BC099B39623D8
:1001600008C096B3962305C093B3962302C090B3FC
:100170009623892F0895813061F028F0823079F03C
:10018000833099F008954FEF60E181E00E943600DE
:1001900008954FEF60E281E00E94360008954FEF2E
:1001A00060E481E00E94360008954FEF60E881E04E
:1001B0000E9436000895813061F028F0823079F095
:1001C000833099F008954FEF60E181E00E946E0066
:1001D00008954FEF60E281E00E946E0008954FEFB6
:1001E00060E481E00E946E0008954FEF60E881E0D6
:1001F0000E946E000895813061F028F0823079F01D
:10020000833099F0089540E060E181E00E946E0043
:10021000089540E060E281E00E946E00089540E0B1
:1002200060E481E00E946E00089540E060E881E0B3
:100230000E946E00089581E00E94450181E00E94C5
:10024000BB0081E00E9465018230D9F781E00E9405
:10025000DB006CE271E080E090E00E94AE0181E0A2
:100260000E946501823039F464EA76E080E090E033
:100270000E94AE0106C06CEB72E080E090E00E944C
:10028000AE0181E00E94FB00DCCF813061F028F0FC
:10029000823079F0833099F0089540E060E182E0A7
:1002A0000E943600089540E064E081E00E9436003C
:1002B000089540E064E080E00E943600089540E048
:1002C00068E080E00E94360008958130A1F028F0B7
:1002D0008230F9F0833059F13FC06FE070E080E088
:1002E00090E00E94AE0160E182E00E94A6008111D0
:1002F0002CC090E031C06FE070E080E090E00E94A0
:10030000AE0164E081E00E94A600811120C090E06F
:1003100023C06FE070E080E090E00E94AE0164E0F6
:1003200080E00E94A600811114C090E015C06FE02B
:1003300070E080E090E00E94AE0168E080E00E9402
:10034000A600811108C090E007C092E005C092E0CD
:1003500003C092E001C092E0892F08950F931F938C
:100360008B019C01672B682B692B81F417C00196C8
:10037000823FA8E09A07D9F74F5F5F4F6F4F7F4FDB
:10038000401751076207730731F408C040E050E09E
:10039000BA01F0E0E0E08F2F9E2FE9CF1F910F917F
:0603A0000895F894FFCF60
:00000001FF
