S01300004156525F447269766572732E73726563EA
S11300000C942A000C943C000C943C000C943C008E
S11300100C949E010C943C000C943C000C943C0009
S11300200C943C000C943C000C9494010C943C0003
S11300300C943C000C943C000C943C000C943C004C
S11300400C943C000C943C000C943C000C943C003C
S11300500C943C0011241FBECFE5D8E0DEBFCDBF19
S113006020E0A0E6B0E001C01D92A836B207E1F797
S11300700E94BE000C940C020C940000813041F0EC
S113008028F0823039F0833039F008956BBB08953D
S113009068BB089565BB089562BB08954F3FC1F4E2
S11300A0813051F028F0823059F0833069F008959E
S11300B08AB3682B6ABB089587B3682B67BB08951E
S11300C084B3682B64BB089581B3682B61BB089526
S11300D041111BC0813059F028F0823069F083301F
S11300E081F008958AB3609568236ABB089587B345
S11300F06095682367BB089584B36095682364BBE7
S1130100089581B36095682361BB08954F3FC1F49E
S1130110813051F028F0823059F0833069F008952D
S11301208BB3682B6BBB089588B3682B68BB0895A9
S113013085B3682B65BB089582B3682B62BB0895B1
S113014041111BC0813059F028F0823069F08330AE
S113015081F008958BB3609568236BBB089588B3D1
S11301606095682368BB089585B36095682365BB73
S1130170089582B36095682362BB089580E00E946D
S11301801F0181E00E941F0160E080E00E945A018B
S113019080E00E94380181E00E9449016AE070E039
S11301A080E090E00E94710160E081E00E945A01C9
S11301B081E00E94380180E00E9449016AE070E019
S11301C080E090E00E947101D1E010E00DEC01C0EC
S11301D0D0E0109FC12D1124C695C695C6959C2FBD
S11301E0990F892F880F880F890F612F681B80E072
S11301F00E945A0180E00E94380181E00E94490176
S11302006AE070E080E090E00E9471016C2F81E070
S11302100E945A0181E00E94380180E00E94490155
S11302206AE070E080E090E00E947101DF5FD23309
S113023081F61F5F143661F6D0E010E0CACFCF9389
S1130240C82F4FEF6FE081E00E944E00CC2319F0DD
S1130250C13039F00BC04FEF64E083E00E944E00E0
S113026005C04FEF68E083E00E944E00CF910895EF
S1130270882319F0813039F008954FEF64E083E06A
S11302800E94860008954FEF68E083E00E94860094
S11302900895882319F0813039F0089540E064E02E
S11302A083E00E948600089540E068E083E00E94B5
S11302B086000895882319F0813051F0089581E073
S11302C00E943E004FEF64E083E00E9486000895A0
S11302D081E00E943E004FEF64E083E00E948600CC
S11302E008950F931F938B019C01672B682B692B37
S11302F081F417C00196823FA8E09A07D9F74F5FAF
S11303005F4F6F4F7F4F401751076207730731F4F8
S113031008C040E050E0BA01F0E0E0E08F2F9E2FEB
S1130320E9CF1F910F9108951F920F920FB60F926C
S113033011240F900FBE0F901F9018951F920F92CB
S11303400FB60F921124CF92DF92EF92FF920F9388
S11303501F932F933F934F935F936F937F938F9349
S11303609F93AF93BF93CF93DF93EF93FF938091CA
S113037060008130C1F5809161008F5F80936100DE
S11303800F2EF2E6EF2EF0E0FF2EF02DC4E6D0E0C3
S113039006E610E00F2EF6E6CF2EF0E0DF2EF02D6D
S11303A0F70191917F0180916100891730F040E05D
S11303B06881F80180810E94860080916100843602
S11303C030F04FEF6881F80180810E948600219609
S11303D00F5F1F4FCC15DD0519F78091610084363E
S11303E010F010926100FF91EF91DF91CF91BF91D6
S11303F0AF919F918F917F916F915F914F913F91B9
S11304002F911F910F91FF90EF90DF90CF900F905D
S10F04100FBE0F901F901895F894FFCFBA
S9030000FC
